:020000040800F2
:1000000000500020314B0008B1450008B3450008FE
:10001000B5450008B7450008B945000800000000D4
:10002000000000000000000000000000BB450008C8
:10003000BD45000800000000BF450008C14500089C
:10004000794B0008794B0008794B0008794B000880
:10005000794B0008794B0008794B0008794B000870
:10006000794B0008794B0008794B0008794B000860
:10007000794B0008794B0008794B0008794B000850
:10008000794B0008794B0008794B0008794B000840
:10009000D1450008794B0008794B0008794B0008DE
:1000A000794B0008794B0008794B0008794B000820
:1000B000DD450008794B0008794B0008794B0008B2
:1000C000794B0008794B0008794B0008794B000800
:1000D000794B0008794B0008FD450008794B000872
:1000E000794B0008794B0008794B000800000000AC
:1000F0000000000000000000000000000000000000
:0C01000000000000000000005FF808F1A3
:1001100010B5054C237833B9044B13B10448AFF341
:1001200000800123237010BDC801002000000000E2
:10013000C854000808B5034B1BB103490348AFF38B
:10014000008008BD00000000CC010020C854000859
:10015000034613F8012B002AFBD1181A0138704707
:10016000D0400B1CD1409C46203AD3401843524209
:10017000634693401843704781F0004102E000BF9E
:1001800083F0004330B54FEA41044FEA430594EA57
:10019000050F08BF90EA020F1FBF54EA000C55EA92
:1001A000020C7FEA645C7FEA655C00F0E2804FEA63
:1001B0005454D4EB5555B8BF6D420CDD2C4480EA45
:1001C000020281EA030382EA000083EA010180EA75
:1001D000020281EA0303362D88BF30BD11F0004FC3
:1001E0004FEA01314FF4801C4CEA113102D04042F9
:1001F00061EB410113F0004F4FEA03334CEA133334
:1002000002D0524263EB430394EA050F00F0A7804B
:10021000A4F10104D5F1200E0DDB02FA0EFC22FA46
:1002200005F2801841F1000103FA0EF2801843FA3A
:1002300005F359410EE0A5F120050EF1200E012A2B
:1002400003FA0EFC28BF4CF0020C43FA05F3C01869
:1002500051EBE37101F0004507D54FF0000EDCF1E2
:10026000000C7EEB00006EEB0101B1F5801F1BD38B
:10027000B1F5001F0CD349085FEA30004FEA3C0C8F
:1002800004F101044FEA445212F5800F80F09A8085
:10029000BCF1004F08BF5FEA500C50F1000041EB89
:1002A000045141EA050130BD5FEA4C0C404141EB8D
:1002B000010111F4801FA4F10104E9D191F0000FB4
:1002C00004BF01460020B1FA81F308BF2033A3F137
:1002D0000B03B3F120020CDA0C3208DD02F1140C2E
:1002E000C2F10C0201FA0CF021FA02F10CE002F169
:1002F0001402D8BFC2F1200C01FA02F120FA0CFC62
:10030000DCBF41EA0C019040E41AA2BF01EB0451AA
:10031000294330BD6FEA04041F3C1CDA0C340EDCA8
:1003200004F11404C4F1200220FA04F001FA02F3EB
:1003300040EA030021FA04F345EA030130BDC4F1A9
:100340000C04C4F1200220FA02F001FA04F340EA9E
:100350000300294630BD21FA04F0294630BD94F04F
:10036000000F83F4801306BF81F480110134013D36
:100370004EE77FEA645C18BF7FEA655C29D094EAA7
:10038000050F08BF90EA020F05D054EA000C04BF25
:100390001946104630BD91EA030F1EBF0021002010
:1003A00030BD5FEA545C05D14000494128BF41F0AF
:1003B000004130BD14F580043CBF01F5801130BD13
:1003C00001F0004545F0FE4141F470014FF000009E
:1003D00030BD7FEA645C1ABF194610467FEA655C4F
:1003E0001CBF0B46024650EA013406BF52EA0335F1
:1003F00091EA030F41F4002130BD00BF90F0000FDF
:1004000004BF0021704730B54FF4806404F132041A
:100410004FF000054FF0000150E700BF90F0000FD3
:1004200004BF0021704730B54FF4806404F13204FA
:1004300010F0004548BF40424FF000013EE700BFCA
:1004400042004FEAE2014FEA31014FEA02701FBF5A
:1004500012F07F4393F07F4F81F06051704792F02C
:10046000000F14BF93F07F4F704730B54FF46074A6
:1004700001F0004521F0004120E700BF50EA0102F1
:1004800008BF704730B54FF000050AE050EA01029E
:1004900008BF704730B511F0004502D5404261EB0E
:1004A00041014FF4806404F132045FEA915C3FF44F
:1004B000DCAE4FF003025FEADC0C18BF03325FEAE8
:1004C000DC0C18BF033202EBDC02C2F1200300FA9D
:1004D00003FC20FA02F001FA03FE40EA0E0021FAC2
:1004E00002F11444C1E600BF4FF0FF3C06E000BF3C
:1004F0004FF0010C02E000BF4FF0010C4DF804CDAD
:100500004FEA410C7FEA6C5C4FEA430C18BF7FEA6C
:100510006C5C1BD001B050EA410C0CBF52EA430C9A
:1005200091EA030F02BF90EA020F0020704710F11A
:10053000000F91EA030F58BF994208BF90422CBFA9
:10054000D8176FEAE37040F0010070474FEA410CA2
:100550007FEA6C5C02D150EA013C07D14FEA430CC0
:100560007FEA6C5CD6D152EA033CD3D05DF8040B31
:10057000704700BF8446104662468C461946634663
:1005800000E000BF01B5FFF7B7FF002848BF10F13A
:10059000000F01BD4DF808EDFFF7F4FF0CBF01207F
:1005A00000205DF808FB00BF4DF808EDFFF7EAFFFB
:1005B00034BF012000205DF808FB00BF4DF808EDB6
:1005C000FFF7E0FF94BF012000205DF808FB00BFAB
:1005D0004DF808EDFFF7CEFF94BF012000205DF835
:1005E00008FB00BF4DF808EDFFF7C4FF34BF012042
:1005F00000205DF808FB00BF80F0004002E000BF73
:1006000081F0004142001FBF5FEA410392EA030FFD
:100610007FEA226C7FEA236C6AD04FEA1262D2EB47
:100620001363C1BFD218414048404140B8BF5B424C
:10063000192B88BF704710F0004F40F4000020F0E5
:100640007F4018BF404211F0004F41F4000121F0FB
:100650007F4118BF494292EA030F3FD0A2F1010245
:1006600041FA03FC10EB0C00C3F1200301FA03F183
:1006700000F0004302D5494260EB4000B0F5000FA6
:1006800013D3B0F1807F06D340084FEA310102F165
:100690000102FE2A51D2B1F1004F40EBC25008BF17
:1006A00020F0010040EA03007047490040EB0000E1
:1006B00010F4000FA2F10102EDD1B0FA80FCACF110
:1006C000080CB2EB0C0200FA0CF0AABF00EBC2500F
:1006D00052421843BCBFD0401843704792F0000FFD
:1006E00081F4000106BF80F400000132013BB5E750
:1006F0004FEA41037FEA226C18BF7FEA236C21D0C6
:1007000092EA030F04D092F0000F08BF084670472A
:1007100090EA010F1CBF0020704712F07F4F04D1F8
:10072000400028BF40F00040704712F100723CBF0B
:1007300000F50000704700F0004343F0FE4040F435
:10074000000070477FEA226216BF08467FEA2363F3
:100750000146420206BF5FEA412390EA010F40F4DE
:10076000800070474FF0000304E000BF10F000432A
:1007700048BF40425FEA000C08BF704743F0964311
:1007800001464FF000001CE050EA010208BF70472C
:100790004FF000030AE000BF50EA010208BF7047B3
:1007A00011F0004302D5404261EB41015FEA010CC8
:1007B00002BF84460146002043F0B64308BFA3F1C0
:1007C0008053A3F50003BCFA8CF2083AA3EBC253A2
:1007D00010DB01FA02FC634400FA02FCC2F12002C1
:1007E000BCF1004F20FA02F243EB020008BF20F0F8
:1007F0000100704702F1200201FA02FCC2F120025E
:1008000050EA4C0021FA02F243EB020008BF20EA52
:10081000DC70704742000ED2B2F1FE4F0BD34FF0A6
:100820009E03B3EB126209D44FEA002343F0004366
:1008300023FA02F070474FF00000704712F1610F89
:1008400001D1420202D14FF0FF3070474FF000005B
:10085000704700BF38B50E4B054618784FF47A73D1
:10086000B3FBF0F30B4A1068B0FBF3F000F09EF816
:10087000044658B90F2D09D8024629464FF0FF30DB
:1008800000F054F8044B20461D6038BD012038BDEF
:10089000000000201C01002004000020074A08B5C9
:1008A0001368032043F01003136000F02DF80020BC
:1008B000FFF7D0FF03F0C0FD002008BD002002407C
:1008C000034A044B11681B780B441360704700BF48
:1008D0001404002000000020014B1868704700BF7E
:1008E0001404002038B50446FFF7F6FF0546631CE4
:1008F0001EBF044B1B78E418FFF7EEFF401B844239
:10090000FAD838BD00000020074A0002D36800F47E
:10091000E06023F4E0631B041B0C43F0BF6343F46B
:1009200000330343D360704700ED00E0174B30B550
:10093000DC68C4F30224C4F10703251D042B28BF7F
:100940000423062D4FF0010598BF002405FA03F398
:1009500003F1FF3388BF033C1940A14005FA04F4BA
:10096000013C2240002842EA01024FEA0212AFBFD6
:1009700000F16040064B00F00F00D2B2A5BFD2B22A
:1009800000F561401A5480F8002330BD00ED00E00E
:1009900014ED00E00123420900F01F0003FA00F00B
:1009A000014B43F82200704700E100E00138B0F14C
:1009B000807F0AD2F021064B064A586082F8231045
:1009C0000020072298601A6070470120704700BF1E
:1009D00010E000E000ED00E0044B04281A680CBFB2
:1009E00042F0040222F004021A60704710E000E0B6
:1009F000704708B5FFF7FCFF08BD000090F82130F4
:100A000010B5022B03D004238363012010BD0368BB
:100A10001A6822F00E021A601A6822F001021A60A7
:100A2000184A93421FD0143293421ED0143293427C
:100A30001DD0143293421DD0143293421DD0143273
:100A400093420CBF4FF480134FF080730E4A002482
:100A50005360012380F82130436B80F820407BB144
:100A60009847204610BD0123F0E71023EEE74FF42E
:100A70008073EBE74FF48053E8E74FF48033E5E70A
:100A8000184610BD0800024000000240114AD36819
:100A900013F0100305D01049CB6943F00203CB617A
:100AA0001023D268500706D50B4943F00403CA69E6
:100AB00042F00102CA61074AD169C90708D5064850
:100AC000C16941F00401C161D16921F00101D16125
:100AD000D36070470020024018040020064B1869BC
:100AE00010F0800007D0054A5A6002F188325A603F
:100AF0001869C0F3C0107047002002402301674509
:100B0000034A0020136943F080031361704700BF5C
:100B100000200240F8B50646FFF7DEFE114C0746FE
:100B20002546E368D80712D4E368990644BF20231A
:100B3000E360EB68DA0606D4EB69DB0703D4E86808
:100B400010F0040002D0FFF7A1FF0120F8BD731CD4
:100B5000E7D00EB90320F8BDFFF7BEFEC01B8642EA
:100B6000DFD2F7E7002002402DE9F84F1F4C9946ED
:100B7000237E0546012B0F46904633D001234CF2CD
:100B800050302376FFF7C6FF40BB012D03D0022D66
:100B90000CBF022504250026B246DFF854B032010E
:100BA00040464946FFF7DCFAC4F81CA0DBF81030D9
:100BB00080B243F00103CBF8103027F816004CF256
:100BC0005030FFF7A7FFDBF8103023F00103CBF81C
:100BD000103018B90136F3B29D42E0D800232376D5
:100BE000BDE8F88F0220BDE8F88F00BF1804002090
:100BF000002002400022064BDA61064B1A6942F0DF
:100C000004021A611A6942F040021A61704700BF7B
:100C100018040020002002400022064BDA61064B37
:100C20001A6942F002021A6158611A6942F04002E0
:100C30001A61704718040020002002402DE9F0419D
:100C4000234D07462B7E8846012B3DD001240368A7
:100C50002C76022B4CF2503013D1FFF75BFF20B102
:100C6000012000232B76BDE8F081FFF7C3FF4CF293
:100C70005030FFF74FFF174A136923F00403136145
:100C8000EFE7FFF747FF0028EAD14FF0FF33C8F83E
:100C900000302046BE680F4CFA68BB6803EB822325
:100CA0009E42DED23046FFF7B7FF4CF25030FFF7DE
:100CB00031FF236923F00203236110B1C8F80060FB
:100CC000CFE706F58066E7E70220BDE8F08100BFC8
:100CD00018040020002002402DE9F74F002216469C
:100CE000654BDFF8A4E1DFF8A4C14FF001080C6800
:100CF00008FA06F808EA0404A0457FD14D68122DD1
:100D000000F0AF8000F28880022D00F0A7807CD830
:100D1000002D00F08E80012D00F09E804FF00F0915
:100D2000FF2C93BF824606F18045083DD0F800B005
:100D300092BFB500D0F804B0AD0009FA05F82BEA6F
:100D4000080802FA05F588BF00F1040A48EA05051B
:100D5000CAF80050D1F804A01AF0805F4ED0474D79
:100D6000464FAD6926F0030845F00105BD61BD6938
:100D700008F1804805F00105019508F5803806F076
:100D8000030B019D4FEA8B0BD8F8085009FA0BF9B9
:100D900025EA09093A4DA84268D005F58065A842C0
:100DA00066D005F58065A84264D005F58065A84247
:100DB0000CBF0325042505FA0BF545EA0905C8F81B
:100DC00008501D681AF4803F14BF2543A5431D60D9
:100DD0005D681AF4003F14BF2543A5435D609D681C
:100DE0001AF4801F14BF2543A5439D60DD681AF4E3
:100DF000001F14BF2C4325EA0404DC600136102ECA
:100E00007FF473AF03B0BDE8F08F032D22D0112D16
:100E100084D1CA68043281E71A4FBD4209D012D882
:100E2000DFF86C904D4504D009F580394D457FF4CD
:100E300075AF8A68C2B1012A0CBFC0F81080C0F833
:100E4000148008226AE77545F3D06545F1D0DFF8D4
:100E50004490EBE7002261E7CA685FE7CA6808329E
:100E60005CE7CA680C3259E7042257E70025A2E77D
:100E70000125A0E702259EE7000401400010024082
:100E80000008014000002110000031100000321065
:100E900000001110000022100AB10161704709041E
:100EA000FBE72DE9F041044686B0002860D090F8B9
:100EB000293403F0FF021BB980F8282403F0B8FCA2
:100EC000254603236E4655F8100B84F8293401F0AB
:100ED00053FB0FCD0FC62B6804F10408336098E86C
:100EE0000E00206801F038FB0021206801F04EFB65
:100EF0000021234622460126084604F1100582F807
:100F00002810918601310F2982F8296082F82B0080
:100F10009063D063106402F12002F0D100221746E2
:100F200083F828229A8601320F2A83F8297283F8DF
:100F30002B72C3F83872C3F83C72C3F8407203F1E5
:100F40002003EDD16E460FCD0FC62B68336098E8B5
:100F50000E00206801F01CFB012384F82470206837
:100F600084F8293401F0ECFD002006B0BDE8F081E2
:100F70000120FAE790F8283410B5012B04460ED072
:100F8000012180F8281403F080FD206801F0D6FDCF
:100F9000206801F0E8FA002084F8280410BD02203F
:100FA00010BD90F8282410B5012A04460BD0012268
:100FB00080F8282484F82410006801F0B9FD00208E
:100FC00084F8280410BD022010BD38B5044648B28C
:100FD000002801F07F05B5BF04EB451104EB41117A
:100FE000283101F50A71C00F0D704870CB7094F86C
:100FF00028340A61012B09D00123206884F82834A1
:1010000001F0E2FA002084F8280438BD022038BD3F
:101010004BB2002B01F07F02B5BF00EB421100EB99
:101020004111283101F50A71DB0F10B50A704B70C0
:1010300090F828340446012B09D0012380F8283485
:10104000006801F033FC002084F8280410BD022061
:1010500010BD70B5002601F07F014D01441984F8E0
:10106000281205F50A710144C4F83C22C4F8403244
:10107000C4F8446284F82962006801F07BFD3046C0
:1010800070BD01F00F0100EB4111B1F8440270474F
:1010900001F07F0170B54D0144192364002601233E
:1010A00084F8281005F128010144E263666484F89D
:1010B0002930006801F05EFD304670BD2DE9F34730
:1010C0000446006801F03EFD000400F198802068AD
:1010D00001F038FD41050FD522682046B2F84430B2
:1010E00023F480631B041B0CA2F8443003F0D7FBED
:1010F00000212046FFF755FF206801F023FD47043B
:1011000008D52268B2F8443023F480431B041B0C3A
:10111000A2F84430206801F015FD860408D5226845
:10112000B2F8443023F400531B041B0CA2F84430E3
:10113000206801F007FDC5041CD522682046B2F8DE
:10114000403023F004031B041B0CA2F84030B2F81B
:10115000403023F008031B041B0CA2F8403003F0BE
:10116000BBFB2268B2F8443023F480531B041B0CF1
:10117000A2F84430206801F0E5FC00051DD5206888
:10118000B0F840309BB243F00803A0F84030B0F80C
:10119000443023F400631B041B0CA0F84430B0F867
:1011A00040309BB243F00403A0F8403001F0CAFC89
:1011B000C10402D4204603F07FFB206801F0C2FC8A
:1011C00082050BD522682046B2F8443023F4007320
:1011D0001B041B0CA2F8443003F05DFB206801F0F7
:1011E000B1FCC30508D52268B2F8443023F48073FB
:1011F0001B041B0CA2F8443002B0BDE8F0870023AA
:10120000C84FDFF82483DFF82493ADF80430ADF83D
:1012100006302068B0F844309BB2ADF804301B04AF
:101220007FF555AFBDF8045015F00F0540F0AB80C9
:10123000BDF80410038811F010019BB226D13B4089
:101240000380B0F8503094F828209BB203EBC2031F
:1012500000EB4300D0F80434E26BC3F3090363648A
:101260001344E363204603F00FFB94F82430002B73
:10127000CFD0226C002ACCD194F82430216843F0DE
:101280008003A1F84C3084F82420C2E7ADF8063082
:10129000BDF806301A051FD5B0F8503094F8282252
:1012A0009BB203EBC20300EB4303D3F80C34B4F856
:1012B0002C22C3F30903C4F8443204F22C4101F098
:1012C00059FD22682046138823F070031B051B0D6F
:1012D000138003F0CBFA9CE7BDF806301B0498D5C9
:1012E000038823F070031B051B0D0380B0F85030FA
:1012F00094F828229BB203EBC20300EB4303D3F81C
:101300000C34C3F30903C4F8443263B1B4F82C229B
:10131000D4F83C1201F02EFDD4F83C32D4F844222B
:101320001344C4F83C320021204603F0A5FA226899
:10133000D4F83852B2F850103E2D89B201F10601AE
:1013400002F5806017D9C5F34F13EE0604BF03F111
:10135000FF339BB249EA83239BB240F811301388D4
:101360009BB203EA080383F4405343F4004343F081
:10137000800313804DE7C5F34F03ED0744BF0133EE
:101380009BB29B02E8E730F825309BB2ADF80630FF
:10139000BDF8063019043FD530F825304FEA451A1C
:1013A00023F070031B051B0D20F8253004EB0A0108
:1013B00091F83232002B74D1B0F8503091F82822D5
:1013C0009BB2063303EBC20300EB4303D3F8006484
:1013D000C6F3090636B1B1F82C223346D1F83C12D7
:1013E00001F0C8FC04EB0A01D1F84432D1F83C22E8
:1013F0003344C1F84432D1F840323244C1F83C227F
:1014000023B1D1F83802864280F08680A2449AF84F
:101410002812204603F030FABDF806301A067FF590
:10142000F8AE20686E0130F82530A1199BB23B4020
:1014300020F8253091F832300235002B78D1B0F801
:10144000503091F828209BB2023303EBC20300EB2B
:101450004303D3F8003404EB4515C3F309036B6071
:101460001BB18A8DC96B01F073FB22682644B2F868
:10147000503096F828109BB2023303EBC10302EB05
:101480004303D3F80024F36BC2F3090272641A44D5
:10149000336CF2632046002B40F0858003F0F4F9B2
:1014A000B7E691F8283230F82320DB0012F4804FA1
:1014B000B0F8502092B221D00232134400EB430323
:1014C000D3F80064C6F3090636B13346B1F82E22CC
:1014D000D1F83C1201F04EFC04EB0A0393F82812F9
:1014E000226832F8213023F0F0031B051B0D43F472
:1014F000004343F0C00322F8213073E7063213445F
:1015000000EB4303D3F80064C6F30906002EE3D0D2
:101510003346B1F83022DBE791F828122046FFF776
:1015200098FD79E70F8FFFFF8FBFFFFF0080FFFF60
:1015300091F8283030F82320DB0012F0400FB0F88B
:10154000502092B220D00232134400EB4303D3F870
:10155000003404EB4515C3F309036B601BB1CA8D5E
:10156000C96B01F0F5FAA31993F82810226832F834
:10157000213023F0F0031B051B0D43F4404343F0DF
:10158000800322F8213070E70632134400EB430356
:10159000D3F8003404EB4515C3F309036B60002B4B
:1015A000E1D00A8EDCE7FFF773FD32E6012238B5A1
:1015B0004BB2002B01F07F05B5BF00EB451100EBEE
:1015C0004111283101F50A71DB0FEDB28A700D70FF
:1015D0004B7090F82834044693420ED080F82824AB
:1015E000006801F031FA25B904F22C41206801F0BD
:1015F000ADFA002084F8280438BD022038BD38B583
:1016000000244BB2002B01F07F02B5BF00EB42116A
:1016100000EB4111283101F50A71DB0F8C700A7063
:101620004B7090F828340546012B09D0012380F82F
:101630002834006801F03AFA85F82844204638BD7D
:10164000022038BD11F0800F1BBF01F07F0100EBBD
:10165000411000EB4110283008BF00F50A701AB99C
:1016600082728380002070470122C3801B0C82722B
:101670000381F7E703682DE9F341DB07054610D442
:101680002B689F075ED42B68190700F195802B68A3
:101690005A0700F1BF80EA69002A40F02D8100203E
:1016A00014E0904C636803F00C03042B07D06368CC
:1016B00003F00C03082B0CD16368DE0309D5236803
:1016C0009C03DDD56B68002BDAD1012002B0BDE8A8
:1016D000F0816B68B3F5803F10D1236843F4803309
:1016E0002360FFF7F9F8064623689803C8D4FFF78C
:1016F000F3F8801B6428F7D90320E7E79BB9236838
:1017000023F480332360236823F480232360FFF7CE
:10171000E3F8064623689903B2D5FFF7DDF8801B8E
:101720006428F7D9E8E7B3F5A02F236803D143F481
:1017300080232360D1E723F480332360236823F4DC
:101740008023CDE7674C636813F00C0F07D0636804
:1017500003F00C03082B10D16368DA030DD423685F
:101760009B0702D52B69012BAFD123686A6923F04F
:10177000F80343EAC203236085E72A695A4B6AB13A
:1017800001221A60FFF7A8F8064623689F07ECD4E9
:10179000FFF7A2F8801B0228F7D9ADE71A60FFF720
:1017A0009BF80646236898077FF56DAFFFF794F81E
:1017B000801B0228F6D99FE7AA694A4C4B4BDAB145
:1017C00001221A60FFF788F80646636A9B070DD569
:1017D0004FF4FA52464B1B68B3FBF2F3019300BF80
:1017E000019B5A1E0192002BF9D150E7FFF774F8C4
:1017F000801B0228E9D97FE71A60FFF76DF80646DB
:10180000636A9F077FF543AFFFF766F8801B0228E6
:10181000F6D971E7334CE369D80024D40127E36992
:1018200043F08053E361E36903F080530093009B2E
:10183000304E3368D90518D5EB68012B26D1236AC1
:1018400043F001032362FFF747F841F288368046F0
:10185000236A9B073FD5002F3FF41DAFE36923F0B8
:101860008053E36117E70027E2E7336843F48073AE
:101870003360FFF731F880463368DA05DCD4FFF7D0
:101880002BF8A0EB08006428F6D935E7ABB9236A3A
:1018900041F2883823F001032362236A23F0040312
:1018A0002362FFF719F80646236A9807D3D5FFF796
:1018B00013F8801B4045F7D91EE7052B236A03D197
:1018C00043F004032362BAE723F001032362236A8F
:1018D00023F00403B6E7FEF7FFFFA0EB0800B042D9
:1018E000B6D909E70010024000004242800442429B
:1018F0001C01002000700040224C636803F00C03C0
:10190000082B3FF4E2AE00231F4E022A33602BD196
:10191000FEF7E2FF0746236899011FD42B6AB3F54F
:10192000803F05D16268A96822F400320A436260F0
:10193000696A62680B4322F47412134363600123E3
:101940003360FEF7C9FF054623689A013FF5A7AE4D
:10195000FEF7C2FF401B0228F6D9CDE6FEF7BCFF1A
:10196000C01B0228D7D9C7E6FEF7B6FF0546236895
:101970009B017FF594AEFEF7AFFF401B0228F6D91E
:10198000BAE600BF001002406000424230B5194B79
:1019900087B002AC03F11005224618685968083375
:1019A00003C2AB421446F7D101238DF80430022361
:1019B00011498DF805304B6803F00C02082A17D145
:1019C000C3F3834206A80244DB0312F8102C0CD5A3
:1019D0004B680A48C3F34043504306AA134413F824
:1019E000143CB0FBF3F007B030BD05485043FAE7B4
:1019F0000248F8E7E05400080010024000127A00A4
:101A000000093D004D4A2DE9F0411368054603F0F9
:101A100007038B420E4628D32A68910732D4D20797
:101A200038D4464A136803F007039E4273D32A68EA
:101A3000434C12F0040F79D1130706D563682A6965
:101A400023F4605343EAC2036360FFF79FFF6368B8
:101A50003C4AC3F30313D35CD8403B4B18600020CF
:101A6000FEF7F8FE0020BDE8F081136823F00703BD
:101A70000B431360136803F007039942CCD0012095
:101A8000BDE8F0812E49A8684B6823F0F0030343BA
:101A90004B60C4E76A682A4C012A23681CD113F4FE
:101AA000003FECD0636841F2883823F0030313430E
:101AB0006360FEF711FF6B680746012B14D1636862
:101AC00003F00C03042BACD0FEF706FFC01B40450F
:101AD000F5D90320BDE8F081022A02D113F0007F7E
:101AE000DFE713F0020FDCE7022B0FD1636803F08E
:101AF0000C03082B95D0FEF7EFFEC01B4045F5D92F
:101B0000E7E7FEF7E9FEC01B4045E2D8636813F043
:101B10000C0FF6D185E7136823F0070333431360F6
:101B2000136803F007039E42A9D180E76368E96860
:101B300023F4E0630B4363607EE700BF00200240B4
:101B400000100240875700081C010020014B186854
:101B5000704700BF1C010020044B054A5B68C3F3BB
:101B60000223D35C034A1068D8407047001002403B
:101B7000975700081C010020044B054A5B68C3F31B
:101B8000C223D35C034A1068D8407047001002405B
:101B9000975700081C01002003682DE9F341D9077D
:101BA000054620D5354CE369DA0032D40127E369D4
:101BB00043F08053E361E36903F080530193019B99
:101BC0002F4E3368DB0526D5236A13F4407336D1D4
:101BD000236A6A6823F44073134323621FB1E369E5
:101BE00023F08053E3612868830706D5234AA96858
:101BF000536823F440430B43536010F010001BD094
:101C00001E4AE9685368002023F480030B435360A5
:101C100012E00027D4E7336843F480733360FEF7A3
:101C20005BFE80463368D805CED4FEF755FEA0EBA8
:101C300008006428F6D9032002B0BDE8F0816A6884
:101C400002F440729342C3D001200E4A236A10600E
:101C5000002023F4407110602162D907B8D5FEF747
:101C60003BFE41F288380646236A9A07B0D4FEF755
:101C700033FE801B4045F7D9DDE700BF001002406E
:101C800000700040400442420223026880F83D3068
:101C9000136843F001031360012380F83D300020F6
:101CA000704703680020DA6842F00102DA601A68BF
:101CB00042F001021A60704790F83C3070B5012B79
:101CC0004FF002031CD0012280F83D30036880F8F9
:101CD0003C209A6822F47F4222F077029A600A68D8
:101CE000402A79D019D8102A00F093800AD8002A07
:101CF00000F08980012380F83D30002380F83C30DB
:101D0000184670BD202A00F08A80302AF2D19A68E5
:101D100022F0700242F0370236E0702A36D01BD82B
:101D2000502A42D0602AE5D11C6A4D6824F0100484
:101D3000CE681C6299691A6A21F4704122F0A002EF
:101D400042EA051241EA063199611A629A6822F064
:101D5000700242F0670217E0B2F5805F11D0B2F571
:101D6000005FC7D18A684D689C68C9682A4324F41B
:101D70007F4442EA012222439A609A6842F48042F8
:101D800002E09A6822F007029A60B3E78A684D6819
:101D90009C68C9682A4324F47F4442EA0122224312
:101DA0009A609A6842F07702EEE74C68CE68196A4A
:101DB0001D6A21F00A0125F001051D629A6921437F
:101DC00022F0F00242EA06129A6119629A6822F041
:101DD000700242F05702D7E74C68CE68196A1D6A54
:101DE00021F00A0125F001051D629A69214322F0C4
:101DF000F00242EA06129A6119629A6822F07002B1
:101E000042F04702C0E79A6822F0700242F00702EF
:101E1000BAE79A6822F0700242F01702B4E79A68B3
:101E200022F0700242F02702AEE770477047704719
:101E300070477047036810B51A69044691070ED5BC
:101E4000DA6892070BD56FF002021A6101229B69D2
:101E500002779B0777D0FFF7EAFF002323772368F9
:101E60001A69500710D5DA6851070DD56FF00402D2
:101E70001A6102229B69227713F4407F204668D0C2
:101E8000FFF7D5FF0023237723681A6912070FD5C0
:101E9000DA6810070CD56FF008021A610422DB69BA
:101EA0002277990720465AD0FFF7C1FF00232377F6
:101EB00023681A69D20610D5DA68D0060DD56FF0FE
:101EC00010021A610822DB69227713F4407F204652
:101ED0004BD0FFF7ACFF0023237723681A69D107A3
:101EE00008D5DA68D20705D56FF0010220461A61DD
:101EF000FFF79BFF23681A69100608D5DA681106F8
:101F000005D56FF0800220461A6100F0AAF8236818
:101F10001A69520608D5DA68500605D56FF04002F6
:101F200020461A61FFF785FF23681A69910622D5BA
:101F3000DA6892061FD56FF020022046BDE81040F7
:101F40001A6100F08DB8FFF771FF2046FFF770FFB0
:101F500083E7FFF76BFF2046FFF76AFF92E7FFF783
:101F600065FF2046FFF764FFA0E7FFF75FFF20460D
:101F7000FFF75EFFAFE710BD1A4A036890420AD030
:101F8000B0F1804F07D0A2F59432904203D002F511
:101F90008062904215D14A6823F070031343114ABE
:101FA00090420AD0B0F1804F07D0A2F5943290420F
:101FB00003D002F58062904203D1CA6823F44073D3
:101FC00013434A6923F08003134303608B68C362A1
:101FD0000B688362034B984204BF0B6903630123C0
:101FE00043617047002C014010B50446A0B190F841
:101FF0003D3003F0FF021BB980F83C2002F06CFA80
:102000000223206884F83D30211DFFF7B5FF01232E
:10201000002084F83D3010BD012010BD90F83C3008
:1020200010B5012B4FF0020318D080F83D30036843
:102030000C685A68496822F070025A605A68224354
:102040005A609A6822F080029A609A680A439A60FD
:10205000012380F83D30002380F83C30184610BD45
:10206000704770470368DA6822F49072DA605A6940
:1020700022F001025A61202380F83A3070470000B4
:102080002DE9F0470568C2682B69016923F44053C4
:1020900013432B618368EA680B43416922F4B05211
:1020A00022F00C020B431343EB606B69826923F44B
:1020B000407313436B61404B81469D424FF01904BE
:1020C00046D1FFF759FD04FB00F3D9F804604FF047
:1020D0006408B600B3FBF6F3B3FBF8F31E01FFF799
:1020E0004BFD6043D9F804309B00B0FBF3F7FFF7DA
:1020F00043FD6043D9F804309B00B0FBF3F3B3FB1E
:10210000F8F308FB13731B013233B3FBF8F303F04E
:10211000F007FFF731FD6043D9F804209200B0FBCF
:10212000F2FAFFF729FD6043D9F804309B00B0FBB9
:10213000F3F3B3FBF8F308FB13A31B013233B3FB38
:10214000F8F303F00F033B433344AB60BDE8F08783
:10215000FFF702FD04FB00F3D9F804604FF06408B8
:10216000B600B3FBF6F3B3FBF8F31E01FFF7F4FC84
:102170006043D9F804309B00B0FBF3F7FFF7ECFCA9
:102180006043D9F804309B00B0FBF3F3B3FBF8F3E2
:1021900008FB13731B013233B3FBF8F303F0F007B2
:1021A000FFF7DAFC6043D9F804209200B0FBF2FAA2
:1021B000FFF7D2FCB7E700BF00380140F8B504468E
:1021C0000E4617461D4621680B6836EA030301D107
:1021D0000020F8BD6B1CF7D095B923680320DA689E
:1021E00022F4D072DA605A6922F001025A61202387
:1021F00084F8393084F83A30002384F83830F8BD58
:10220000FEF76AFBC01B8542DDD2E6E710B5044647
:1022100040B390F8393003F0FF021BB980F8382042
:1022200002F076F92423226884F83930D3682046F6
:1022300023F40053D360FFF723FF236800201A69BB
:1022400022F490421A615A6922F02A025A61DA682D
:1022500042F40052DA602023E06384F8393084F8D5
:102260003A3010BD012010BD10B5044660B390F89F
:10227000393003F0FF021BB980F8382002F048F92A
:102280002423226884F83930D368204623F400538D
:10229000D360FFF7F5FE236800201A6922F490420C
:1022A0001A615A6922F022025A615A6942F0080200
:1022B0005A61DA6842F40052DA602023E06384F85D
:1022C000393084F83A3010BD012010BD2DE9F041BD
:1022D0001F4690F839300446202B0D4690464ED1CB
:1022E000002949D0002A47D090F83830012B46D039
:1022F000012380F838300023C363212380F839306C
:10230000FEF7EAFA0646A4F82480A4F82680E38CB7
:102310009BB26BB93B46324640212046FFF74EFF49
:10232000A8B9202384F8380084F83930BDE8F0815A
:10233000E38C3246013B9BB2E384A3688021B3F572
:10234000805F20463B460ED1FFF738FF10B10320D7
:10235000BDE8F0812B882268C3F30803536023692A
:1023600043B90235D3E7FFF729FF0028EFD12368EF
:102370002A785A600135CAE70120BDE8F0810220C1
:10238000BDE8F0817047704790F83A3010B5222BC5
:1023900036D183680169B3F5805F0268836A23D10F
:1023A0005268E9B9C2F3080223F8022B8362C48D94
:1023B000013CA4B2C4858CB90368DA6822F020021B
:1023C000DA60DA6822F48072DA605A6922F0010277
:1023D0005A61202380F83A30FFF7D5FF002010BD66
:1023E000D2B223F8012BE1E721B9591C526881626E
:1023F0001A70DCE75268591C816202F07F02F7E72D
:10240000022010BD70470000036870B51A680446CA
:102410001607D9685D6907D196065AD58D0658D535
:10242000BDE87040FFF7B0BF15F0010502D111F40F
:10243000907F4ED0D30705D5CE0542BFE36B43F066
:102440000103E363500704D51DB1E36B43F00203BE
:10245000E363930704D51DB1E36B43F00403E36327
:10246000160704D51DB1E36B43F00803E363E36B88
:10247000002B66D0950604D5880602D52046FFF7C6
:1024800083FF236820465D69E26B110702D415F0D3
:1024900040051AD0FFF7E6FD23685A69520610D5A9
:1024A0005A69606B22F040025A6150B1254B436378
:1024B000FEF7A4FA002844D0606BBDE87040436B7F
:1024C00018472046FFF79EFF70BDFFF79BFFE563AF
:1024D00070BD160627D50D0625D594F83920212A7A
:1024E0002FD1A268B2F5805F226A17D11188C1F39B
:1024F00008015960216979B902322262E28C013AFD
:1025000092B2E284EAB9DA6822F08002DA60DA682C
:1025100042F04002DA6070BD0132EEE7511C2162E8
:1025200012785A60EAE750060BD54A0609D5DA68F0
:10253000204622F04002DA60202384F83930FFF789
:1025400021FF70BD4925000808B50023406AC385F6
:10255000C384FFF757FF08BD84B001A880E80E00D0
:1025600004B000207047B0F840309BB243F43F43C2
:10257000A0F8403000207047B0F8403023F4745386
:102580005B045B0CA0F840300020704700207047CF
:1025900084B010B503AC84E80E00BDE81040002202
:1025A0000123A0F84030A0F84020A0F84420A0F873
:1025B0005020B0F8403004B09BB243F43F43A0F841
:1025C000403010467047000070B5CB780A78032B76
:1025D0000FD8DFE803F00264505930F8223023F4BA
:1025E000EC4323F070031B041B0C43F4007320F82E
:1025F000223040F60F730C7830F8242044F4004564
:1026000045F080051A402A4320F824208A7A0D7864
:10261000002A40F097804C788A88002C4AD0B0F885
:1026200050405208A4B204EBC50400EB440452002D
:10263000C4F800240C7830F82420520608D530F86D
:102640002420134043F4004343F0C00320F8243017
:102650000A7830F8223023F4E04323F040031B04CF
:102660001B0C83F0200343F4004343F0800320F865
:102670002230002070BD30F8223023F4EC4323F0E8
:1026800070031B041B0CB2E730F8223023F4EC4338
:1026900023F070031B041B0C43F4C063A7E730F85E
:1026A000223023F4EC4323F070031B041B0C43F48F
:1026B00080639CE7B0F8503052089BB2043303EBC0
:1026C000C503520000F5806444F81320B0F8502090
:1026D0000D6992B20B7806323E2D02EBC30229D966
:1026E000C5F34F16EB0604BF06F1FF339EB26E4BE7
:1026F00043EA86239BB244F812300A7830F822303D
:102700005E040BD530F8223023F0F0031B051B0DBF
:1027100043F4404343F0800320F822300A7830F835
:10272000223023F4804323F070031B041B0C83F43A
:10273000405398E7C5F34F03ED0744BF01339BB205
:102740009B02D7E730F8252022F4F8721205120D0B
:1027500042F4014242F0800220F82520B0F85020D7
:102760000C7892B202EBC402CC8800F58065640854
:10277000640045F81240B0F850200C7892B2043250
:1027800002EBC4020C896408640045F812404A78E0
:102790000C78002A47D130F82420550408D530F8A9
:1027A0002420134043F4404343F0800320F82430B6
:1027B0000A7830F822305C060BD530F8223023F04E
:1027C000F0031B051B0D43F4004343F0C00320F846
:1027D00022300A7830F8223023F0F0031B051B0D5D
:1027E00043F4004343F0C00320F8223048F2800253
:1027F0000C7830F8243023F4804323F070031B045A
:102800001B0C83F44053134320F82430097830F82C
:10281000213023F4E04323F040031B041B0C13433B
:1028200020F8213025E730F82420520408D530F86C
:102830002420134043F4404343F0800320F8243025
:102840000A7830F822305B060BD530F8223023F0BE
:10285000F0031B051B0D43F4004343F0C00320F8B5
:1028600022300A7830F8223023F0F0031B051B0DCC
:1028700043F4404343F0800320F8223048F28002C2
:102880000C7830F8243023F4E04323F040031B0499
:102890001B0C134320F82430097830F8213023F43E
:1028A000804323F07003B8E70080FFFF10B58C7AF7
:1028B0004A780B78CCBB02B330F8232052060BD5F4
:1028C00030F8232022F0F0021205120D42F40042EB
:1028D00042F0C00220F823200A7830F8223023F496
:1028E000E04323F040031B041B0C43F4004343F07C
:1028F000800320F82230002010BD30F8232054043B
:102900000BD530F8232022F0F0021205120D42F40C
:10291000404242F0800220F823200A7830F822302A
:1029200023F4804323F07003DDE7002A48D130F818
:10293000232052040BD530F8232022F0F002120598
:10294000120D42F4404242F0800220F823200A781F
:1029500030F822305C060BD530F8223023F0F0033B
:102960001B051B0D43F4004343F0C00320F8223045
:102970000A7830F8223023F0F0031B051B0D43F4D6
:10298000004343F0C00320F8223048F280020C7864
:1029900030F8243023F4804323F070031B041B0C15
:1029A000134320F82430097830F8213023F4E04331
:1029B00023F040031B041B0C134320F821309AE73B
:1029C00030F8232052040BD530F8232022F0F002F7
:1029D0001205120D42F4404242F0800220F82320FA
:1029E0000A7830F822305B060BD530F8223023F01D
:1029F000F0031B051B0D43F4004343F0C00320F814
:102A000022300A7830F8223023F0F0031B051B0D2A
:102A100043F4404343F0800320F8223048F2800220
:102A20000C7830F8243023F4E04323F040031B04F7
:102A30001B0C134320F82430097830F8213023F49C
:102A4000804323F07003B5E70A788AB9038823F43A
:102A5000804323F040031B041B0C83F4805383F05A
:102A6000100343F4004343F08003038000207047C9
:102A70004B7883B130F8223023F4E04323F0400355
:102A80001B041B0C83F0100343F4004343F080034A
:102A900020F82230EAE730F8223023F4804323F094
:102AA00070031B041B0C83F48053EDE74B780A780A
:102AB00013B330F822305B060BD530F8223023F008
:102AC000F0031B051B0D43F4004343F0C00320F843
:102AD00022300A7830F8223023F4E04323F0400318
:102AE0001B041B0C83F0300343F4004343F08003CA
:102AF00020F822300020704730F822305B040BD5DC
:102B000030F8223023F0F0031B051B0D43F4404343
:102B100043F0800320F822300A7830F8223023F482
:102B2000804323F070031B041B0C83F44053DBE74A
:102B300011B98023A0F84C30002070470020704766
:102B400000207047B0F8440080B270470020704702
:102B500010B50024013300F580605B1000EB4202E9
:102B6000A34200D110BD31F8020B22F82400013439
:102B7000F6E7000070B50E468A69497805460129D6
:102B80003369B07A66D19A421C469BBF0023144633
:102B9000D21AB36188BFB261A3B210BBB2887169A7
:102BA0002846FFF7D5FFB5F8503032789BB2023394
:102BB00003EBC20305EB4303C3F80044327835F856
:102BC000223023F4E04323F040031B041B0C83F06A
:102BD000300343F4004343F0800325F82230002003
:102BE00070BD327835F82210D20011F0400FB5F8E0
:102BF000501089B21AD002310A4405EB4202C2F8E1
:102C00000044328971692846FFF7A2FF7378327851
:102C10009BB935F8223023F0F0031B051B0D43F45C
:102C2000004343F0C00325F82230C7E70A4405EB10
:102C30004202C2F80444F288E4E7012BBED135F821
:102C4000223023F0F0031B051B0D43F4404343F0F7
:102C50008003E8E79A4293BF0023D21AB261B361BE
:102C600098BF1346327870BBB5F850103E2B89B22E
:102C700001F1060101EBC20105F5806018D9C3F32B
:102C80004F12DB0604BF02F1FF339AB2384B43EA1E
:102C900082239BB240F81130327835F8223023F489
:102CA000804323F070031B041B0C83F4405390E714
:102CB000C3F34F02DC0744BF013292B2920292B2D8
:102CC00040F81120E8E7B9B9B5F850103E2B89B2A9
:102CD00001F1020101EBC20105F5806428D9C3F3BB
:102CE0004F10DA0604BF00F1FF3290B2204A42EAE8
:102CF000802292B244F81120727831785ABBB5F82C
:102D000050203E2B92B202F1060202EBC10205F501
:102D1000806015D9C3F34F11DC0604BF01F1FF3306
:102D200099B2134B43EA81239BB240F81230B3E7C8
:102D3000C3F34F02D80744BF013292B29202D8E7E0
:102D4000C3F34F01DB0744BF013189B2890289B265
:102D500040F81210A0E7012A9ED1B5F8502092B297
:102D6000023202EBC10205EB4202C2F8003493E7E3
:102D70000080FFFF10B50024013300F580605B1078
:102D800000EB4202A34200D110BD52F8240021F80A
:102D900014000134F6E7D0F818321BB10020C3F854
:102DA0001402704702207047D0F81C3210B5D0F8DA
:102DB00018425BB194F80002FF2807D09B6894F892
:102DC000012221469847FF2384F80032002010BDDD
:102DD00043230380004870474000002043230380C2
:102DE0000048704784000020432303800048704758
:102DF000D40000200A23038000487047C800002048
:102E000038B50546D0F8184201F034FED5F818322E
:102E1000C4F80C024BB1D5F81C3204F50371DB6821
:102E2000D4F804029847002038BD022038BD0000C5
:102E3000F8B50F78064617F060030C4623D0202B18
:102E400019D1CA884B78C2B13906D0F818520BD5BF
:102E5000D0F81C1218468F682946B84729463046D4
:102E6000E28800F08AFB06E085F8003285F801224E
:102E7000294600F097FB0020F8BDD0F81C028468BA
:102E80001846A047F7E74B780A2BF4D101220149F5
:102E9000E7E700BFE401002010B50446812101F0FE
:102EA00085FD0121204601F081FD8221204601F0AF
:102EB0007DFDD4F8183253B1D4F81C325B689847C2
:102EC000D4F8180201F0E0FD0023C4F81832002005
:102ED00010BDF8B5037C04467BBB4FF4007302229F
:102EE000812101F053FD4FF400730222012120469D
:102EF00001F04CFD082303228221204601F046FD0B
:102F00004FF4077001F0BCFD0646C4F8180220B368
:102F10000025D4F81C321B689847277CC6F8145249
:102F2000C6F8185287B94FF40073D6F8042201216D
:102F3000204601F091FD3846F8BD40230222812150
:102F400001F024FD4023D0E74023D6F804220121DC
:102F5000204601F081FD2846F8BD0120F8BD19B1D9
:102F6000C0F81C120020704702207047D0F81832B9
:102F70000020C3F80812C3F810227047D0F81832A6
:102F80000020C3F804127047D0F8182210B572B1AF
:102F9000D2F81442012364B9C2F814328121B2F884
:102FA0001032D2F8082201F049FD204610BD02205F
:102FB00010BD184610BDD0F8182210B562B1047CBF
:102FC00044B94FF40073D2F80422012101F044FD0A
:102FD000002010BD4023F6E7022010BD08B580B1E7
:102FE000D0F8143213B10023C0F8143209B1C0F87C
:102FF00010120123027080F8FC3101F071FC0020F6
:1030000008BD022008BD19B1C0F814120020704795
:103010000220704708B501F0ABFC002008BD08B5E0
:10302000D0F814320BB9022008BD1B68984700285D
:10303000F9D108BD08B5D0F814325B689847002074
:1030400008BD38B500F502750446284600F065FA5B
:10305000012394F80812C4F8F431B4F80E32C4F81D
:10306000F83101F01F03012B0ED007D3022B10D033
:1030700001F08001204601F0A7FC03E0294620462C
:1030800000F0D6F8002038BD2946204600F0CAF9E5
:10309000F8E72946204600F0DDF9F3E738B50446A5
:1030A000154611BBD0F8F431032B0FD1D0F80C31F9
:1030B000D0F8102193420BD99B1A9A4228BF1A4686
:1030C000C0F80C3192B2294600F07BFA002038BDDE
:1030D000D0F814321B6923B190F8FC21032A00D1E7
:1030E0009847204600F075FAF0E7D0F814329B6953
:1030F000002BEBD090F8FC21032AE7D19847E5E7B5
:1031000070B5134604460E4600293DD1D0F8F4218F
:10311000022A0FD1C569026A954214D9AA1AC2615E
:10312000194692B200F036FA33461A46194620463E
:1031300001F092FC94F80032012B02D1002384F8B4
:103140000032002070BD8369B3FBF2F502FB153538
:1031500065B99A420AD8D0F8F821934206D22A4695
:1031600000F018FAC4F8F8512B46DEE7D4F8143210
:10317000DB682BB194F8FC21032A01D12046984743
:10318000204600F031FAD5E7D0F814325B69002B05
:10319000D7D090F8FC21032AD3D19847D1E7002259
:1031A00038B5044640251146402301F0EFFB2B467D
:1031B000C4F8105100228021204601F0E7FB0123D2
:1031C00084F8FC31D4F8183225622BB1D4F81432CB
:1031D00021795B6820469847002038BD01740020A3
:1031E000704790F8FC3180F8FD31042380F8FC3101
:1031F0000020704790F8FD3180F8FC3100207047C6
:1032000008B590F8FC21032A04D1D0F81432DB6908
:1032100003B19847002008BD10B50446802101F095
:10322000D3FB2046BDE81040002101F0CDBB0000DB
:1032300037B54B7804460D46092B79D8DFE813F0F3
:10324000C900E5007800D90078006D000A00780018
:10325000B9008D004B881A0A013A062A68D8DFE8BF
:1032600002F0041C296767495200D0F810321B682D
:103270000DF10601207C9847BDF80620002A67D092
:10328000EB88002B64D09A4228BF1A460146ADF85D
:103290000620204600F071F95AE0027CD0F8143282
:1032A00032B99B6A0DF10600984702234370E3E7A9
:1032B000DB6AF7E7DBB2052B3AD8DFE803F0030758
:1032C0000B0F1317D0F810325B68D1E7D0F810322B
:1032D0009B68CDE7D0F81032DB68C9E7D0F8103230
:1032E0001B69C5E7D0F810325B69C1E7D0F810322E
:1032F0009B69BDE7037CDBB9D0F814320DF1060001
:103300005B6B9847B8E7037C93B9D0F814320DF1A2
:1033100006001B6B98470723C8E78B8843B9CB8807
:1033200033B990F8FC318D78032B05F07F0503D17C
:103330002046FFF771FF0BE080F8FE51294601F0AF
:103340006FFB204600F045F92DB1022384F8FC31D3
:10335000002003B030BD0123F8E78978304D012902
:103360002970E5D890F8FC31022B0CD0032BDFD16B
:10337000B1B90223416080F8FC31FFF75BFE2046C3
:1033800000F027F9E4E70029F9D001210323416087
:1033900080F8FC312046FFF742FE0228EFD1C7E754
:1033A00041680129EBD0C9B2FFF744FE297861607A
:1033B000F0E7CA88012ABBD190F8FC31022B03D078
:1033C000032BB5D1011D64E70146002341F8083FF6
:1033D0005FE790F8FC31023B012BA9D80123C360C1
:1033E000D0F804320BB10323C360022204F10C01B4
:1033F0004FE74B88012BABD1C4F80432D4F8143218
:1034000029469B6820469847B9E790F8FC31023B73
:10341000012B8DD84B88012B9AD10023ECE700BFFC
:10342000E501002038B590F8FC310446032B0D4629
:103430000DD10B79012B0AD8D0F814329B6898472C
:10344000EB8813B9204600F0C4F8002038BDFFF720
:10345000E3FEFAE770B50A788E8802F06002202A4F
:1034600004460D46F3B205D1D0F814329B68984754
:10347000002070BD4A78012A1CD02AD3032AF7D134
:1034800090F8FC21022A40D0032A02D0FFF7C4FEA4
:10349000EEE74A8822B95E0602D0194601F094FA96
:1034A000D4F8143229469B6820469847204600F0FD
:1034B00090F8DDE790F8FC21022A26D0032AE5D116
:1034C0004A88002AD4D15906F0D0194601F08AFA68
:1034D000E6E790F8FC21022A17D0032AD6D103F0A0
:1034E0007F0516F0800F00EB0515194614BF143543
:1034F00005F5827501F084FA68B101232B60022280
:103500002946204600F039F8B2E75A06B0D01946ED
:1035100001F05AFAACE72860F1E70B7803704B78BA
:103520004370CA788B7803EB022343804A790B7986
:1035300003EB02238380CA798B7903EB0223C380D8
:10354000704730B588B105462B1A15F8014BDBB230
:10355000002CF9D15B00023313800B7003234B70F6
:103560000223013810F8015F05B930BD5A1CCD5453
:10357000D2B20233DBB28C54F4E71346022210B508
:10358000C0F8F42183610A46C361002101F056FAB4
:10359000002010BD08B513460A46002101F04EFA7E
:1035A000002008BD1346032210B5C0F8F421C0F86E
:1035B00008310A46C0F80C31002101F04DFA002014
:1035C00010BD08B513460A46002101F045FA002057
:1035D00008BD08B50423C0F8F43100231A46194683
:1035E00001F02CFA002008BD08B50523C0F8F4311D
:1035F00000231A46194601F02FFA002008BD0000EA
:103600000A4B1A6922F480421A611A6922F4006294
:103610001A615A6922F020025A615A6922F00202A4
:103620005A615A6942F008025A61704700440040EA
:1036300008B500F07FFCFFF7E3FF034B1A68D3687F
:1036400043F02003D36008BD4C0D0020002110B5CD
:10365000431E00F12F0203F1080403F8011FA342E7
:10366000FBD19A42F7D1002100F1340300F13C0272
:1036700003F8011B9342FBD14023036310BD0000FC
:10368000094BDA6890060DD51A6891060AD51A68B2
:103690009206FCD55A68054B5A70054A137803F018
:1036A000FD031370704700BF004400403804002041
:1036B0003D040020064AC0F30800137843F00203DB
:1036C0001370044B58601A685206FCD5704700BF4F
:1036D0003D0400200044004040F2E933054A1178DF
:1036E000890703D5013B9BB2002BF8D1024B5878D8
:1036F000704700BF3D0400203804002010B54FF48F
:103700001650FFF795FFF020FFF7D4FFFFF7E4FF17
:1037100004464FF4E130FFF78BFF024B20461C704C
:1037200010BD00BF3E040020FF2210B5034601F18A
:10373000080013F0010414BF0A700C7001318842B4
:103740004FEA5303F5D110BD07B56946FFF7ECFF0B
:1037500000211DF80100FFF7ADFF01310829F8D164
:1037600003B05DF804FB70B500230446082214F88A
:10377000015B85EA030616F0010F4FEA530318BFF9
:1037800083F08C0302F1FF3218BFDBB212F0FF02AC
:103790004FEA5505EDD1221AD2B28A42E6D3184635
:1037A00070BD0721FFF7DFBF2DE9F84F05460E4634
:1037B000FFF7A4FFF0285CD0F020FFF7C5FF4FF023
:1037C00000094FF0FF380127FF20FFF773FFFFF7D5
:1037D00083FF8346FF20FFF76DFFFFF77DFFABF10F
:1037E000FF025342A0F1FF015341484248415FFAB2
:1037F00089F483424FEAD40A12D1BBF1FF0F3BD0C8
:103800002B6B99450FD031DC05EB0A0393F834009C
:1038100004F00703184110F0010004D1C8460CE081
:10382000BBF1FF0F23D1FF2016F80A3004F0070484
:1038300007FA04F41C4306F80A4009F10109FFF7EE
:1038400039FFB9F1400FBFD1C5F83080731E343550
:10385000063613F8012FB34205F8012BF9D1B8F160
:10386000000FD4BF00200120BDE8F88FC84600201B
:10387000E3E70020BDE8F88F4FF0FF30BDE8F88F98
:1038800038B505460024FFF7E1FE05EBC4012846E4
:10389000FFF78AFF002806DB04F1010401D0062CA3
:1038A000F3D1204638BD4FF0FF34FAE738B504466F
:1038B000FFF724FF5520FFF747FF651E073415F873
:1038C000010FFFF741FFA542F9D138BD08B5084601
:1038D000FFF7ECFFBDE808404420FFF735BF0B7849
:1038E0002DE9F041102B164601D0282B21D1084696
:1038F000FFF7DCFFBE20FFF727FF00274FF001088E
:10390000FF20FFF7D7FEFFF7E7FEBCB2E508C5F1E1
:103910000805EDB2735D04F00704FF2808FA04F40B
:1039200007F101070CBF1C4323EA0404482F745518
:10393000E6D13046BDE8F0812DE9FF410B7806461F
:10394000102B0D4617461ED0282B28D101AAFFF7B1
:10395000C6FF9DF80C409DF80B304FEA141848EA5A
:10396000031804F00F030A245C434FFA88F8C4F3E9
:1039700007141FB129463046FFF7A8FF8DF80080D5
:103980008DF8014010E001AAFFF7A9FF9DF80C4057
:103990004FEA540804F00104A3001C44E9E70023A3
:1039A0008DF800308DF8013000209DF8003063F371
:1039B00007009DF8013063F30F2004B0BDE8F081EB
:1039C00010B586B0FDF78AF8012300240593039310
:1039D000094B01A902A804930294FDF72FF938B905
:1039E000FDF78EF80198431C5842584106B010BDAF
:1039F000FDF786F82046F9E700F80008B0F5007FEB
:103A00003FBF800000F1006000F5784003683ABFD6
:103A100001200B60002070470144B1F5007F0BDDF1
:103A200000207047830003F1006303F578431B68AF
:103A3000013042F8043B80B28142F3DC0120704740
:103A4000B0F5007F2DE9F04105460F461AD28400FB
:103A500004F1006404F578442368013308D1FDF7CC
:103A60003DF87B1C2AD1FDF74BF80120BDE8F08121
:103A7000174E4FF4007132460020FFF7CDFF20B9FA
:103A8000FDF73EF80020BDE8F08146F82570FFF70D
:103A900097FFFDF723F80F4DDFF83C8005F17843E1
:103AA000A3F57843F258294600230220FDF75CF87D
:103AB0000028E5D104354545F0D1D0E73A4600234A
:103AC00021460220FDF750F80028D9D1CBE700BFEE
:103AD0004004002000F800080000010810B50A4C5E
:103AE00001224FF480512046FDF7D6F93C20FCF727
:103AF000F9FE204600224FF48051FDF7CDF9BDE8D4
:103B000010403C20FCF7EEBE000C014010B5012433
:103B100019212046FFF794FF601C1E2180B2FFF799
:103B20008FFFA01C0534012180B2A4B2FFF788FFEB
:103B30001A2CEDD110BD000038B501240D4D2868B8
:103B4000FCF768FE01462046FFF77AFF6868FCF73D
:103B500061FE631C014698B2FFF772FFA01C05349A
:103B6000297A80B2A4B2FFF76BFF1A2C05F10C057D
:103B7000E5D138BDC80C002037B50124104D01A98E
:103B80002046FFF73BFF0198FCF7ECFD2860601C26
:103B900001A980B2FFF732FF0198FCF7E3FD6860EE
:103BA000A01C01A980B20534FFF728FFA4B2019B35
:103BB0001A2C2B7205F10C05E1D103B030BD00BF0A
:103BC000C80C002013B540F2773401A90A20FFF792
:103BD00015FF019BA34207D0FFF7F2FEFFF796FF08
:103BE00021460A20FFF72CFFFFF7C6FF02B010BDE9
:103BF0004FF4803310B594B001220B9300210224BE
:103C000012934FF4E0130AA80A920C910E921194A9
:103C10001393FDF72FFD00B1FEE70F2305934FF43B
:103C200080630790214605A8069408930993FDF741
:103C3000E9FE00B1FEE71023049001A80193FDF70F
:103C4000ABFF044600B1FEE7FDF780FF4FF47A7347
:103C5000B0FBF3F0FCF7AAFE0420FCF7BDFE224601
:103C600021464FF0FF30FCF761FE14B010BD00009C
:103C7000012808B502D0032804D008BDBDE80840DB
:103C8000FFF72CBF01224FF480410848FDF704F9EB
:103C90003C20FCF727FE054800224FF48041FDF749
:103CA000FBF8BDE808403C20FCF71CBE000C0140BE
:103CB00038B50024C0F10605E3B2AB4204F10104BB
:103CC00000DB38BD0320FFF7D3FF3C20FCF70AFEE2
:103CD000F2E700002DE9F04788B0FFF70FFDF0286C
:103CE00032D03C48FFF7CCFD3B4EC3B233703B4D66
:103CF0008BB93B493B4800F099FF3A48FCF728FA5A
:103D00004FF0FF3382B237493748FEF7DFFA374AC0
:103D1000374B1A60FEE7374A6421324800F052FF01
:103D20003048FCF715FA4FF0FF3382B22D492E4888
:103D3000FEF7CCFA0023DFF89C80DFF8D0902B70E0
:103D40002F783378BB4202D808B0BDE8F08708EB83
:103D5000C7042046FFF725FDE279274B274990420B
:103D600008BF4B460B60079262782B780692A278C8
:103D700064210592E27882460492227919480392DE
:103D800062790292A279019218F8372000921C4AB7
:103D900000F018FF1348FCF7DBF9124982B24FF02C
:103DA000FF331148FEF792FAE3790E48534514BFEA
:103DB0001449154900F03AFF0A48FCF7C9F94FF0D9
:103DC000FF3382B207490848FEF780FA2B780133A7
:103DD0002B70B5E7440C0020490D0020830C002017
:103DE000215500088C0D0020840C002040420F005B
:103DF000180100203555000816550008F00D002068
:103E0000545500088A550008975500080F550008BA
:103E10002DE9F0474FF00C08FCF712FB3E4D3F4CEC
:103E20002B78064608FB03F3E0580F4604EB030A21
:103E3000FCF706FB36A3D3E90023FCF7A3F90246FF
:103E40000B4630463946FCF7AFFB38B3DFF8DC9061
:103E500099F8003013BB9AF80830314A6421314890
:103E600000F0B0FE2F48FCF773F94FF0FF3382B239
:103E70002C492D48FEF72AFA2A48FCF769F9014631
:103E8000284800F0BFFCFFF729FE2B7808FB03430E
:103E9000187AFFF70DFF012389F800300C222B78E8
:103EA00002FB03446068FCF7CBFA19A3D3E90023B3
:103EB000FCF766F902460B46304639464FF00104DE
:103EC000FCF790FB00B9044614F0FF0F1BD0174C11
:103ED0002378C3B11649134800F0A8FE1148FCF737
:103EE00037F94FF0FF3382B20E490F48FEF7EEF973
:103EF0000C48FCF72DF901460A4800F083FCFFF757
:103F0000EDFD00232370BDE8F08700BFAFF3008014
:103F10009A9999999999B93FE6010020C80C002017
:103F2000F05400088C0D0020840C0020C50C0020EB
:103F30000255000808B5094A094B0C211A600022F5
:103F4000586018469A60DA601A6159619A61DA61BC
:103F5000FEF78AF900B1FEE708BD00BF004400404B
:103F60004C0D00202DE9F04F91B0FCF797FCFFF7C6
:103F70003FFE414B4FF400519A69404842F0100215
:103F80009A619A69002402F010020692069A9A69D0
:103F9000012642F020029A619A69022502F020026D
:103FA0000792079A9A694FF4E13742F004029A6146
:103FB0009A6902F004020892089A9A6942F008028B
:103FC0009A619B69002203F008030993099BFCF79F
:103FD00063FF00224FF4E0412948FCF75DFF4FF4F6
:103FE00000530CA925480C930D960F950E94FCF7E1
:103FF00073FE4FF4E0430CA921480C930D960F95E6
:104000000E94204DFCF768FE1F4B284685E888007B
:104010000C23AC60EC602C616B61AC61EC61FEF771
:10402000F5F8064600B1FEE73846FFF783FF00F0DB
:1040300015FB4FF080404FF47A411022C723134CF8
:1040400084E80F0020462661A661FDF7CDFF00B190
:10405000FEE74FF480530CA920460C93FDF72CFE8D
:1040600000B1FEE70A900B900AA92046FDF7D6FFA3
:10407000064668B1FEE700BF001002400010014094
:10408000000C0140840C002000380140080D002085
:104090002046FDF7F9FD2046FDF703FEB749B84875
:1040A00000F0C4FDB648FCF753F84FF0FF3382B27E
:1040B000B3492846FEF70AF9FFF70CFEFFF782FD29
:1040C0003546DFF80083AF4FAF4E98F80030ECB2C2
:1040D000A34200F22381AD49A94800F0A7FDA848FA
:1040E000FCF736F8DFF8E08282B24FF0FF33A449E4
:1040F000A748FEF7EBF8C246DFF8D09298F80030F8
:10410000002B40D0B9F80030142B39D99E49012238
:104110000846FFF711FC9F4C00B2C0F30723207044
:10412000637040B2DBB29C4A64210193009000238B
:10413000934800F047FD9248FCF70AF84FF0FF3330
:1041400082B28F499248FEF7C1F88D48FCF700F81B
:1041500001468B4800F056FB0023A9F800300A23E3
:104160006078B0FBF3F0FCF701FB054694F9000022
:10417000FCF7FCFA01462846FCF744FAFFF748FE34
:1041800000238AF80030854D2B78012B18D10023AD
:1041900083497B482B7000F049FD7948FBF7D8FF35
:1041A0004FF0FF3382B276497948FEF78FF87448B2
:1041B000FBF7CEFF0146724800F024FBFFF7BCFC82
:1041C0002B78022B5BD10024764B774A1B78642135
:1041D0006B482C7000F0F6FC6948FBF7B9FF4FF014
:1041E000FF3382B266496A48FEF770F86448FBF70D
:1041F000AFFF0146624800F005FB6C4FDFF8D0B11D
:104200005F4E3B7A039404937868FCF703FBC0B2DB
:104210000194029057F80C0BFCF7FCFAC0B223464D
:104220005A4664210090304600F0CCFC3046FBF743
:104230008FFF4FF0FF3382B231465548FEF746F804
:104240003046FBF785FF01340146304600F0DAFACC
:10425000052CD6D156494A4800F0E8FC4848FBF7FF
:1042600077FF474982B24FF0FF334948FEF72EF8F7
:104270004348FBF76DFF0146414800F0C3FA2B7835
:10428000042B19D100232B70464B4A4A1B7864211A
:104290003B4800F097FC3A48FBF75AFF384982B296
:1042A0004FF0FF333A48FEF711F83548FBF750FF5F
:1042B0000146334800F0A6FA2B78032B7FF41EAF9B
:1042C00000232B700C253C4B384E1C78654373192A
:1042D0001A7A039404925868FCF79CFAC0B20290D0
:1042E00001947059FCF796FAC0B223460090334A05
:1042F0006421234800F066FC2148FBF729FF4FF0BA
:10430000FF3382B21E492248FDF7E0FF1C48FBF74D
:104310001FFF01461A4800F075FAEFE6FB6883F4C8
:104320000053FB6016F83430102B53D0282B03D0E9
:10433000002B62D10135C8E6012206EBC4013046EC
:10434000FFF7FAFA134A00B2C0F307235370DBB247
:1043500010700193234640B2194A00906421084826
:1043600000F030FC0648FBF7F3FE4FF0FF3382B25B
:1043700003490748FDF7AAFFDCE700BF9F55000887
:104380008C0D002000100140440C00204A5600080B
:10439000840C0020400C002069560008C40C00204A
:1043A0008A560008E6010020A5560008C80C002027
:1043B000CE56000824570008480D00203C5700083E
:1043C000D3550008490D0020820C0020800C0020ED
:1043D0004E570008012206EBC4013046FFF7ACFA45
:1043E000104A00B2C0F307231070537040B2DBB222
:1043F0000193009023460C4AB0E706EBC404A2796F
:104400006421059262790948049222790392E27844
:104410000292A278019262780092054A00F0D2FBE3
:10442000A0E700BF400C0020FB5500088C0D0020C9
:1044300023560008FEE70000254B07B59A690320C4
:1044400042F001029A619A6902F001020092009A18
:10445000DA6942F08052DA61DB6903F0805301933C
:10446000019BFCF751FA00226FF00B001146FCF79C
:104470005DFA00226FF00A001146FCF757FA00229D
:104480006FF009001146FCF751FA00226FF00400AA
:104490001146FCF74BFA00226FF003001146FCF7BF
:1044A00045FA00226FF001001146FCF73FFA0022A6
:1044B0004FF0FF301146FCF739FA064A536823F0F3
:1044C000E06343F00073536003B05DF804FB00BF8A
:1044D0000010024000000140036807B5B3F1804FAF
:1044E00012D103F50433DA691C2042F00102DA61CB
:1044F0000022DB69114603F001030193019BFCF7E5
:1045000015FA1C20FCF746FA03B05DF804FB000026
:104510007FB50368224A934221D1224B02A99A69AE
:10452000214842F480429A619B6903F480430093DE
:10453000009B4FF40073029302230393032305931C
:10454000FCF7CAFB4FF480630293002302A91648CC
:1045500003930493FCF7C0FB07B05DF804FB134A18
:104560009342F9D10F4B02A9DA690F4842F40032A5
:10457000DA61DB6903F400330193019B04230293A6
:104580001223039303230593FCF7A6FB00222620A6
:104590001146FCF7CBF92620FCF7FCF9DCE700BF5D
:1045A0000038014000100240000801400044004073
:1045B0007047FEE7FEE7FEE7FEE77047704770478B
:1045C00008B5FCF77DF9BDE80840FCF712BA000019
:1045D0000148FCF773BD00BFE8170020044A0548F6
:1045E0001388013313800122034B1A70FDF722BC9C
:1045F000800C0020080D0020820C002008B5034824
:10460000FDF702FFBDE80840FFF73AB84C0D002067
:104610000F4B1A6842F001021A6059680D4A0A40AD
:104620005A601A6822F0847222F480321A601A6882
:1046300022F480221A605A6822F4FE025A604FF473
:104640001F029A604FF00062034B9A60704700BFF0
:10465000001002400000FFF800ED00E010B5094C2A
:10466000002209492046FEF7B9FC08492046FEF71A
:10467000CAFC20460649FEF772FC2046BDE8104001
:10468000FEF7C8BCF40D0020300100200800002017
:1046900020010020002070470020704770B58EB0C8
:1046A00001AC0A6806460146204600F0C7FA3F49B9
:1046B000204600F0D8FA18B303223D4B001B1A70B5
:1046C0000EAB184410F8305C3A4B303DEDB23A492D
:1046D00020461D7000F0C7FA00283BD00C23001BB9
:1046E0005D430EAB03440A2013F82F2C13F82E3C25
:1046F000303A303B00FB0230FCF738F82F4B585172
:104700002F49204600F0AFFA10B10222284B1A7050
:104710002C49204600F0A7FA50B10EAB001B1844FC
:1047200010F82C3C284A303B13700422204B1A709E
:104730002649204600F097FA10B101221C4B1A704E
:1047400031462348FEF71AFC2148FEF734FC0020CE
:104750000EB070BD1F49204600F085FA98B10C23B9
:10476000164A001B03FB05250EAB03440A2013F871
:104770002F2C13F82E3C303A303B00FB0230FBF775
:10478000F5FF6860BCE71449204600F06CFA002889
:10479000B6D00C22094B001B02FB05350EAB1844AA
:1047A00010F82D3C303B2B72AAE700BF9F57000842
:1047B000C40C0020480D0020A4570008C80C00209D
:1047C000B8570008C0570008E6010020C957000884
:1047D000F40D0020AA570008B057000810B5064C89
:1047E000002206492046FEF7C1FB05492046FEF798
:1047F000C5FB002010BD00BFF40D002000140020F8
:104800001810002010B5094C0A46D4F81832D3F815
:10481000143243B901462046FEF7A8FB2046BDE806
:104820001040FEF7B1BB012010BD00BFF40D002009
:1048300007B50D4B02689A4212D103F5DA33DA69F3
:10484000142042F40002DA610022DB69114603F40D
:1048500000030193019BFCF769F81420FCF79AF818
:1048600003B05DF804FB00BF005C004000F22C4187
:10487000D0F85C04FEF7E5BB00EB4113D3F83C2213
:10488000D0F85C04FEF70ABC00EB4113DA6BD0F8F9
:104890005C04FEF735BCD0F85C04FEF7B1BC10B583
:1048A00004460121D0F85C04FEF798FCD4F85C04BF
:1048B000BDE81040FEF773BC10B50446D0F85C04A8
:1048C000FEF78FFCA36923B1024A136943F0060384
:1048D000136110BD00ED00E0D0F85C04FEF78ABC67
:1048E00010B5022308224FF0030E04461D491E484E
:1048F00080E80E400023C0F85C44C4F820028361C5
:10490000C3610362FCF7CDFA20B14FF497711748E9
:10491000FFF790FD002218231146D4F82002FCF77F
:1049200091FE582300228021D4F82002FCF78AFE51
:10493000C02300228121D4F82002FCF783FE4FF42B
:10494000887300220121D4F82002FCF77BFE4FF48B
:10495000807300228221D4F82002FCF773FE00202D
:1049600010BD00BF005C0040E8170020D6570008CB
:1049700008B5D0F82002FCF7FDFA03289ABF024BD5
:10498000185C022008BD00BFD257000810B51C46B5
:10499000D0F8200213462246FCF717FB03289ABFE3
:1049A000014B185C022010BDD257000808B5D0F8A2
:1049B0002002FCF72DFB03289ABF024B185C022053
:1049C00008BD00BFD257000808B5D0F82002FCF798
:1049D000EDFD03289ABF024B185C022008BD00BF02
:1049E000D257000808B5D0F82002FCF708FE0328CB
:1049F0009ABF024B185C022008BD00BFD2570008C6
:104A00000A06D0F8203245BF01F07F0103EB4113C5
:104A100003EB411393F82A0058BF93F82A0270471A
:104A200008B5D0F82002FCF7BCFA03289ABF024B65
:104A3000185C022008BD00BFD257000808B5D0F8A6
:104A40002002FCF725FB03289ABF024B185C0220CA
:104A500008BD00BFD257000808B5D0F82002FCF707
:104A6000F8FA03289ABF024B185C022008BD00BF69
:104A7000D257000808B5D0F82002FCF702FB08BDA9
:104A800000487047E8010020704770471223014832
:104A90000B8070474C010020042301480B807047B5
:104AA0006001002010B5044C0A4604482146FEF778
:104AB00048FD204610BD00BF481C002002580008D9
:104AC00010B5044C0A4604482146FEF73AFD20463C
:104AD00010BD00BF481C00201558000810B5044C3C
:104AE0000A4604482146FEF72CFD204610BD00BFB3
:104AF000481C00202B58000810B5044C0A460448F6
:104B00002146FEF71EFD204610BD00BF481C0020B8
:104B1000E957000810B5044C0A4604482146FEF740
:104B200010FD204610BD00BF481C0020F4570008AF
:104B3000002103E00B4B5B58435004310A480B4BF8
:104B400042189A42F6D30A4A02E0002342F8043B94
:104B5000084B9A42F9D3FFF75BFD00F00FF8FFF71F
:104B600001FA70477458000800000020C8010020B6
:104B7000C80100204C1E0020FEE7000070B5002593
:104B80000C4E0D4CA41BA410A54209D100F09CFCB6
:104B900000250A4E0A4CA41BA410A54205D170BDE5
:104BA00056F8253098470135EEE756F825309847F6
:104BB0000135F2E76C5800086C5800086C58000882
:104BC000705800080CB430B5174B0C1E9DB01D6812
:104BD00008DA8B234FF0FF302B601DB0BDE830406A
:104BE00002B070474FF40273ADF814300CBF234687
:104BF00004F1FF33049307934FF6FF73029006907E
:104C0000ADF81630209A21AB02A92846019300F096
:104C1000A1F8431CBCBF8B232B60002CDDD00022ED
:104C2000029B1A70D9E700BF64010020034611F807
:104C3000012B03F8012B002AF9D1704770B5044607
:104C400002B970BD234611F8015B561E03F8015BE3
:104C50001DB91444A34203D170BD1C463246EFE790
:104C600003F8015BF6E7F0B5037833B10346184665
:104C70005E1C1B7833B91846F0BD0B78002B18BFAB
:104C80000020F0BD4D1E441E15F8012F002AF3D060
:104C900014F8017F33469742F6D0E8E72DE9F04754
:104CA0008E6882469E420C469146984635D88A893F
:104CB00012F4906F31D00223256809696F1A656973
:104CC00005EB450595FBF3F508F101033B449D42D7
:104CD00038BF1D46530531D5294600F047FB06462F
:104CE00050B90C23CAF80030A3894FF0FF3043F0CD
:104CF0004003A381BDE8F0873A46216900F0C4FA79
:104D0000A38923F4906343F08003A38126613E448A
:104D1000266046466561ED1BA560464528BF4646B0
:104D200049463246206800F0BAFAA36800209B1B6F
:104D3000A36023681E442660BDE8F0872A4600F081
:104D400073FB06460028E1D12169504600F0C2FA03
:104D5000C7E700002DE9F04F9DB003938B89804693
:104D60001C060D4616460FD50B696BB9402100F0A5
:104D7000FDFA2860286128B90C23C8F800304FF0EC
:104D8000FF30C4E040236B610023099320238DF89A
:104D9000293030234FF0010B8DF82A3037463C463E
:104DA00014F8013B002B3CD1B7EB060A0BD053465D
:104DB000324629464046FFF771FF013000F0A280DD
:104DC000099B534409933B78002B00F09B80002300
:104DD0004FF0FF3204930793059206938DF85330FA
:104DE0001A9305222178504800F040FA671C049B72
:104DF000D8B9D90644BF20228DF853201A0744BFE2
:104E00002B228DF8532022782A2A16D000210A203E
:104E1000079A27463B780134303B092B50D9C9B15A
:104E200011E0252BC0D02746B9E73F4A3C46801AFF
:104E30000BFA00F018430490D3E7039A111D12688F
:104E40000391002A01DB079204E0524243F002037F
:104E5000079204933B782E2B0DD17B78791C2A2B5B
:104E600032D1039B02371A1D1B680392002BB8BF77
:104E70004FF0FF3305932D4C03223978204600F084
:104E8000F5F938B14023001B03FA00F0049B013709
:104E9000034304933978062225487E1C8DF8281098
:104EA00000F0E4F9002835D0224BFBB9039B07330F
:104EB00023F0070308330393099B4B4409936DE7E1
:104EC00000FB02320121A4E700230A2418460593BF
:104ED0000F463A780131303A092A03D9002BCAD05B
:104EE0000590C8E704FB00200123F1E703AB009322
:104EF0002A46114B04A94046AFF30080B0F1FF3FB2
:104F00008146D9D1AB895B063FF539AF09981DB011
:104F1000BDE8F08F03AB00932A46074B04A9404637
:104F200000F084F8EAE700BF385800083E5800084F
:104F300042580008000000009D4C00082DE9F04791
:104F400091461F468A680B6906469342B8BF1346CE
:104F5000C9F8003091F843200C46DDF8208012B1EA
:104F60000133C9F800302368990642BFD9F80030F0
:104F70000233C9F80030256815F0060507D104F1A1
:104F8000190AE368D9F800209B1A9D422ADB94F89D
:104F900043302268003318BF012392062FD404F156
:104FA000430239463046C047013022D02368E568C5
:104FB00003F00603042B18BF0025D9F800204FF09A
:104FC000000908BFAD1AA368226908BF25EAE57584
:104FD0009342C4BF9B1AED181A344D451BD10020D3
:104FE000BDE8F0870123524639463046C0470130BC
:104FF00003D14FF0FF30BDE8F0870135C1E7302025
:10500000E11881F843005A1C94F8451022440233F9
:1050100082F84310C3E70123224639463046C04791
:105020000130E6D009F10109D7E700002DE9F0438E
:1050300017460A7E85B06E2A984606460C460C9B9B
:1050400001F1430E00F0BC801AD8632A2ED00AD892
:10505000002A00F0C880582A00F08A8004F1420536
:1050600084F842202AE0642A01D0692AF6D1216816
:105070001A6811F0800F23D0111D1960136827E002
:10508000732A00F0B48008D86F2A2AD0702AE5D19C
:105090000A6842F020020A6003E0752A21D0782ACB
:1050A000DCD178226F4984F8452064E01A6801F168
:1050B0004205111D1960136884F842300123A3E0F2
:1050C00011F0400F02F104011960D7D0B2F900309D
:1050D000002B03DA2D225B4284F8432062490A2226
:1050E00017E02068196810F0800F03D0081D1860C1
:1050F0000B6806E010F0400F01F104001860F7D0D3
:105100000B886F2A14BF0A2208225749002084F80E
:1051100043006568002DA560C0F29C80206820F0E7
:1051200004002060002B3FD1002D40F09580754693
:10513000082A0BD12368DA0708D5236962689A42E6
:10514000DEBF302305F8013C05F1FF35AEEB05036A
:105150002361CDF800803B4603AA21463046FFF785
:10516000EDFE013055D14FF0FF3005B0BDE8F083C2
:1051700081F845203C492268186812F0800F00F140
:1051800004051D6001D0036802E05506FBD50388C5
:10519000D00744BF42F0200222601BB9226822F0EF
:1051A000200222601022B1E77546B3FBF2F002FB49
:1051B0001033CB5C05F8013D03460028F5D1B7E775
:1051C00008681A6810F0800F496904D0101D186033
:1051D0001368196007E010F0400F02F10400186036
:1051E0001368F6D01980002375462361B1E71A6869
:1051F000111D1960156800216268284600F036F814
:1052000008B1401B606063682361002384F8433069
:105210009FE723692A4639463046C0470130A2D06D
:1052200023689B0707D5002504F11909E368039A51
:105230009B1A9D4205DBE068039B9842B8BF184665
:1052400093E701234A4639463046C04701308AD0A9
:105250000135EBE7002BA7D10B7804F1420584F868
:10526000423065E75A5800084958000810B5C9B2DD
:1052700002449042034601D1002010BD1C78013049
:105280008C42F6D1184610BD10B5431E0A44914217
:1052900000D110BD11F8014B03F8014FF7E7884228
:1052A00010B501EB020303D8421E99420CD110BD88
:1052B0009842F9D28118D21AD34200D110BD13F806
:1052C000014D01F8014DF7E711F8014B02F8014FCC
:1052D000EBE7000038B50546002943D051F8043CFF
:1052E0000C1F002BB8BFE41800F0D4F81E4A136856
:1052F000104633B9636014602846BDE8384000F0BA
:10530000CAB8A3420BD921686218934201BF1A6838
:105310005B685218226063600460EDE713465A68C8
:105320000AB1A242FAD919685818A0420BD12068D4
:105330000144581882421960DED110685268014455
:1053400019605A60D8E702D90C232B60D4E7206893
:1053500021188A4201BF11685268091821606260F1
:105360005C60C9E738BD00BF0804002070B5CD1CE3
:1053700025F0030508350C2D38BF0C25002D0646F9
:1053800001DBA94203D90C233360002070BD00F07B
:1053900081F8234A1468214691B9224C23681BB92D
:1053A000304600F067F820602946304600F062F889
:1053B000431C26D10C233046336000F06CF8E4E740
:1053C0000B685B1B1AD40B2B0FD90B60CC18CD507C
:1053D000304600F060F804F10B00231D20F00700B8
:1053E000C31A1BD05A42E25070BD8C420BBF636897
:1053F0004B681360636018BF0C46E9E70C464968C8
:10540000CAE7C41C24F00304A04205D0211A304688
:1054100000F030F80130CDD02560D9E770BD00BF75
:10542000080400200C040020F8B5074614460E4678
:1054300021B91146BDE8F840FFF798BF22B9FFF740
:1054400049FF25462846F8BD00F026F884420FD9CA
:1054500021463846FFF78AFF05460028F2D031463C
:105460002246FFF711FF31463846FFF733FFE9E7E1
:105470003546E7E738B50023054C05460846236066
:1054800000F014F8431C02D1236803B12B6038BD2F
:10549000481E00207047704751F8040C0028A0F106
:1054A0000400BCBF0B58C01870470000044B0246F4
:1054B000196809B903491960186802441A607047ED
:1054C000100400204C1E0020F8B500BFF8BC08BC3A
:1054D0009E467047F8B500BFF8BC08BC9E467047B2
:1054E00002030405060708090A0B0C0D0E0F101025
:1054F00053657420706F77657220746F2025640A7D
:105500000D00506F776572206F66662E0A0D00439E
:105510005243204F4B00435243204552524F522199
:10552000004572726F7220686173206861707065E7
:105530006E65642100666F756E6420256420646565
:105540007669636573206F6E20312D7769726520EF
:10555000627573000A0D64657669636520256420B1
:1055600028534E3A20253032582F253032582530D6
:1055700032582530325825303258253032582530AF
:1055800032582F2530325829200043524366616932
:105590006C65646B0A0D004352436F6B0A0D004B40
:1055A00065726E656C20737461727465642E2E2E44
:1055B0000A0D6765745F524F4D69642066756E63AE
:1055C00074696F6E2065786563757465642E2E2E20
:1055D0000A0D0044533138423230204E5F25327577
:1055E000202C2054656D70657261747572653A2067
:1055F0002533752E253275430A0D00445331385337
:105600003230204E5F253275202C2054656D706538
:105610007261747572653A202533752E2532754393
:105620000A0D00554E4B4E4F574E2046616D696C2A
:10563000793A25782028534E3A2025782578257800
:105640002578257825780A0D29006765745F524F03
:105650004D69642066756E6374696F6E20636F6D4B
:10566000706C6574652E0A0D004453313842323037
:10567000204E5F253275202C2054656D703A202510
:1056800033752E253275430A0D0053657474696EA7
:1056900067732073746F72656420746F2045455082
:1056A00020210A0D0048797374657265736973204F
:1056B0004545502076616C7565733A0A0D70726FBE
:1056C00066696C655F6E756D3A25750A0D000A0D89
:1056D0002D2D3D3D3D3D2D2D0A0D4C7574736B2CCC
:1056E00055412C2032303139204275696C643A3092
:1056F000353131313920286279207D7B6154613622
:105700002C20456D61696C3A647261676F736861E2
:105710003230303040676D782E6E6574290A0D0A7C
:105720000D0A0D0050726F66696C65206368616ECA
:1057300067656420746F2025750A0D0076616C75AD
:105740006573206368616E67656420210A0D68795E
:1057500073745B25755D5F6D696E3A2532752C201B
:10576000687973745B25755D5F6D61783A25327574
:105770002C20687973745B25755D5F706F77657237
:105780003A2531750A0D00000000000000000001FC
:105790000203040607080900000000010203046870
:1057A000797374005F6D696E3A005F6D61783A00DD
:1057B0005F706F7765723A006765745F6366670054
:1057C00070726F66696C653A00736176655F6366D7
:1057D0006700000201022E2E5C5372635C757362D7
:1057E000645F636F6E662E630043444320436F6EB5
:1057F0006669670043444320496E7465726661635D
:10580000650053544D6963726F656C656374726FA4
:105810006E6963730053544D333220566972747548
:10582000616C20436F6D506F7274003030303030D7
:105830003030303030314100232D302B2000686C67
:105840004C006566674546470030313233343536A3
:1058500037383941424344454600303132333435DC
:0C58600036373839616263646566000009
:04586C0035010008FA
:04587000110100081A
:105874000100000010000000D32E0008992E00083B
:10588400312E000800000000A92D0008972D000803
:10589400012E0008000000000000000000000000CD
:1058A400DD2D0008D12D0008E92D0008F52D000894
:1058B40009024300020100C032090400000102028F
:1058C4000100052400100105240100010424020242
:1058D40005240600010705820308001009040100DD
:1058E400020A0000000705010240000007058102CA
:1058F4004000000009024300020100C03209040014
:105904000001020201000524001001052401000128
:10591400042402020524060001070582030800107E
:1059240009040100020A0000000705010200020048
:1059340007058102000200000A0600020000004080
:105944000100000009074300020104C032090400F9
:1059540000010202010005240010010524010001D8
:10596400042402020524060001070582030800FF3F
:1059740009040100020A00000007050102400000BA
:1059840007058102400000002C01000000A24A0427
:10599400DD47000895460008994600089D46000822
:1059A4008D4A0008994A0008A54A0008C14A00081F
:1059B400DD4A0008F94A0008154B000812010002EC
:1059C4000202004083044057000201020301000068
:1059D4000403090468010020000000000000000026
:1059E40000000000000000000000000000000000B3
:1059F40000000000000000000000000000000000A3
:105A04000000000000000000000000000000000092
:105A14000000000000000000000000000000000082
:105A24000000000000000000000000000000000072
:085A340000000000000000006A
:0400000508004B3173
:00000001FF
